{
  "contractName": "MongoDataStorage",
  "abi": [
    {
      "anonymous": false,
      "inputs": [
        {
          "indexed": true,
          "internalType": "bytes32",
          "name": "idHash",
          "type": "bytes32"
        },
        {
          "indexed": false,
          "internalType": "string",
          "name": "data",
          "type": "string"
        }
      ],
      "name": "DataStored",
      "type": "event"
    },
    {
      "inputs": [
        {
          "internalType": "bytes32",
          "name": "",
          "type": "bytes32"
        }
      ],
      "name": "records",
      "outputs": [
        {
          "internalType": "string",
          "name": "",
          "type": "string"
        }
      ],
      "stateMutability": "view",
      "type": "function",
      "constant": true
    },
    {
      "inputs": [
        {
          "internalType": "string",
          "name": "_id",
          "type": "string"
        },
        {
          "internalType": "string",
          "name": "_data",
          "type": "string"
        }
      ],
      "name": "storeData",
      "outputs": [],
      "stateMutability": "nonpayable",
      "type": "function"
    },
    {
      "inputs": [
        {
          "internalType": "string",
          "name": "_id",
          "type": "string"
        }
      ],
      "name": "getData",
      "outputs": [
        {
          "internalType": "string",
          "name": "",
          "type": "string"
        }
      ],
      "stateMutability": "view",
      "type": "function",
      "constant": true
    }
  ],
  "bytecode": "0x608060405234801561001057600080fd5b5061094a806100206000396000f3fe608060405234801561001057600080fd5b50600436106100415760003560e01c806301e64725146100465780634ece5b4c14610076578063ae55c88814610092575b600080fd5b610060600480360381019061005b9190610304565b6100c2565b60405161006d91906103c1565b60405180910390f35b610090600480360381019061008b9190610518565b610162565b005b6100ac60048036038101906100a79190610590565b6101ea565b6040516100b991906103c1565b60405180910390f35b600060205280600052604060002060009150905080546100e190610608565b80601f016020809104026020016040519081016040528092919081815260200182805461010d90610608565b801561015a5780601f1061012f5761010080835404028352916020019161015a565b820191906000526020600020905b81548152906001019060200180831161013d57829003601f168201915b505050505081565b6000826040516020016101759190610675565b6040516020818303038152906040528051906020012090508160008083815260200190815260200160002090816101ac9190610842565b50807fb47f325ec5ac1f68149ca2686e2905c3e99b66bbeb96c5926eb5f91b7ba6388d836040516101dd91906103c1565b60405180910390a2505050565b60606000826040516020016101ff9190610675565b604051602081830303815290604052805190602001209050600080828152602001908152602001600020805461023490610608565b80601f016020809104026020016040519081016040528092919081815260200182805461026090610608565b80156102ad5780601f10610282576101008083540402835291602001916102ad565b820191906000526020600020905b81548152906001019060200180831161029057829003601f168201915b5050505050915050919050565b6000604051905090565b600080fd5b600080fd5b6000819050919050565b6102e1816102ce565b81146102ec57600080fd5b50565b6000813590506102fe816102d8565b92915050565b60006020828403121561031a576103196102c4565b5b6000610328848285016102ef565b91505092915050565b600081519050919050565b600082825260208201905092915050565b60005b8381101561036b578082015181840152602081019050610350565b60008484015250505050565b6000601f19601f8301169050919050565b600061039382610331565b61039d818561033c565b93506103ad81856020860161034d565b6103b681610377565b840191505092915050565b600060208201905081810360008301526103db8184610388565b905092915050565b600080fd5b600080fd5b7f4e487b7100000000000000000000000000000000000000000000000000000000600052604160045260246000fd5b61042582610377565b810181811067ffffffffffffffff82111715610444576104436103ed565b5b80604052505050565b60006104576102ba565b9050610463828261041c565b919050565b600067ffffffffffffffff821115610483576104826103ed565b5b61048c82610377565b9050602081019050919050565b82818337600083830152505050565b60006104bb6104b684610468565b61044d565b9050828152602081018484840111156104d7576104d66103e8565b5b6104e2848285610499565b509392505050565b600082601f8301126104ff576104fe6103e3565b5b813561050f8482602086016104a8565b91505092915050565b6000806040838503121561052f5761052e6102c4565b5b600083013567ffffffffffffffff81111561054d5761054c6102c9565b5b610559858286016104ea565b925050602083013567ffffffffffffffff81111561057a576105796102c9565b5b610586858286016104ea565b9150509250929050565b6000602082840312156105a6576105a56102c4565b5b600082013567ffffffffffffffff8111156105c4576105c36102c9565b5b6105d0848285016104ea565b91505092915050565b7f4e487b7100000000000000000000000000000000000000000000000000000000600052602260045260246000fd5b6000600282049050600182168061062057607f821691505b602082108103610633576106326105d9565b5b50919050565b600081905092915050565b600061064f82610331565b6106598185610639565b935061066981856020860161034d565b80840191505092915050565b60006106818284610644565b915081905092915050565b60008190508160005260206000209050919050565b60006020601f8301049050919050565b600082821b905092915050565b6000600883026106ee7fffffffffffffffffffffffffffffffffffffffffffffffffffffffffffffffff826106b1565b6106f886836106b1565b95508019841693508086168417925050509392505050565b6000819050919050565b6000819050919050565b600061073f61073a61073584610710565b61071a565b610710565b9050919050565b6000819050919050565b61075983610724565b61076d61076582610746565b8484546106be565b825550505050565b600090565b610782610775565b61078d818484610750565b505050565b5b818110156107b1576107a660008261077a565b600181019050610793565b5050565b601f8211156107f6576107c78161068c565b6107d0846106a1565b810160208510156107df578190505b6107f36107eb856106a1565b830182610792565b50505b505050565b600082821c905092915050565b6000610819600019846008026107fb565b1980831691505092915050565b60006108328383610808565b9150826002028217905092915050565b61084b82610331565b67ffffffffffffffff811115610864576108636103ed565b5b61086e8254610608565b6108798282856107b5565b600060209050601f8311600181146108ac576000841561089a578287015190505b6108a48582610826565b86555061090c565b601f1984166108ba8661068c565b60005b828110156108e2578489015182556001820191506020850194506020810190506108bd565b868310156108ff57848901516108fb601f891682610808565b8355505b6001600288020188555050505b50505050505056fea2646970667358221220d4554b436ba01dc27b144b4e388a72f156035adf8886a46c72b82864e7c2994064736f6c63430008140033",
  "immutableReferences": {},
  "source": "// SPDX-License-Identifier: MIT\r\npragma solidity ^0.8.0;\r\n\r\ncontract MongoDataStorage {\r\n    mapping(bytes32 => string) public records;\r\n\r\n    event DataStored(bytes32 indexed idHash, string data);\r\n\r\n    function storeData(string memory _id, string memory _data) public {\r\n        bytes32 idHash = keccak256(abi.encodePacked(_id));\r\n        records[idHash] = _data;\r\n        emit DataStored(idHash, _data);\r\n    }\r\n\r\n    function getData(string memory _id) public view returns (string memory) {\r\n        bytes32 idHash = keccak256(abi.encodePacked(_id));\r\n        return records[idHash];\r\n    }\r\n}\r\n",
  "sourcePath": "C:\\CodeVerseClean\\contracts\\MongoDataStorage.sol",
  "compiler": {
    "name": "solc",
    "version": "0.8.20+commit.a1b79de6.Emscripten.clang"
  },
  "schemaVersion": "3.4.16",
  "updatedAt": "2025-07-06T17:18:55.002Z",
  "networkType": "ethereum",
  "devdoc": {
    "kind": "dev",
    "methods": {},
    "version": 1
  },
  "userdoc": {
    "kind": "user",
    "methods": {},
    "version": 1
  }
}