{
  "contractName": "MongoDataStorage",
  "abi": [
    {
      "anonymous": false,
      "inputs": [
        {
          "indexed": false,
          "internalType": "string",
          "name": "hash",
          "type": "string"
        },
        {
          "indexed": false,
          "internalType": "uint256",
          "name": "timestamp",
          "type": "uint256"
        }
      ],
      "name": "HashStored",
      "type": "event"
    },
    {
      "inputs": [
        {
          "internalType": "uint256",
          "name": "",
          "type": "uint256"
        }
      ],
      "name": "hashes",
      "outputs": [
        {
          "internalType": "string",
          "name": "",
          "type": "string"
        }
      ],
      "stateMutability": "view",
      "type": "function",
      "constant": true
    },
    {
      "inputs": [
        {
          "internalType": "string",
          "name": "",
          "type": "string"
        }
      ],
      "name": "isStored",
      "outputs": [
        {
          "internalType": "bool",
          "name": "",
          "type": "bool"
        }
      ],
      "stateMutability": "view",
      "type": "function",
      "constant": true
    },
    {
      "inputs": [
        {
          "internalType": "string",
          "name": "_hash",
          "type": "string"
        }
      ],
      "name": "storeHash",
      "outputs": [],
      "stateMutability": "nonpayable",
      "type": "function"
    },
    {
      "inputs": [],
      "name": "getHashCount",
      "outputs": [
        {
          "internalType": "uint256",
          "name": "",
          "type": "uint256"
        }
      ],
      "stateMutability": "view",
      "type": "function",
      "constant": true
    },
    {
      "inputs": [
        {
          "internalType": "uint256",
          "name": "index",
          "type": "uint256"
        }
      ],
      "name": "getHash",
      "outputs": [
        {
          "internalType": "string",
          "name": "",
          "type": "string"
        }
      ],
      "stateMutability": "view",
      "type": "function",
      "constant": true
    },
    {
      "inputs": [
        {
          "internalType": "string",
          "name": "_hash",
          "type": "string"
        }
      ],
      "name": "checkHashExists",
      "outputs": [
        {
          "internalType": "bool",
          "name": "",
          "type": "bool"
        }
      ],
      "stateMutability": "view",
      "type": "function",
      "constant": true
    }
  ],
  "bytecode": "0x608060405234801561001057600080fd5b50610c33806100206000396000f3fe608060405234801561001057600080fd5b50600436106100625760003560e01c8063501895ae146100675780636b2fafa91461009757806371dc61cb146100c757806383b3847a146100e35780638565213614610101578063ff458a4b14610131575b600080fd5b610081600480360381019061007c91906104d8565b610161565b60405161008e9190610595565b60405180910390f35b6100b160048036038101906100ac91906104d8565b61020d565b6040516100be9190610595565b60405180910390f35b6100e160048036038101906100dc91906106ec565b610304565b005b6100eb610417565b6040516100f89190610744565b60405180910390f35b61011b600480360381019061011691906106ec565b610423565b604051610128919061077a565b60405180910390f35b61014b600480360381019061014691906106ec565b610459565b604051610158919061077a565b60405180910390f35b6000818154811061017157600080fd5b90600052602060002001600091509050805461018c906107c4565b80601f01602080910402602001604051908101604052809291908181526020018280546101b8906107c4565b80156102055780601f106101da57610100808354040283529160200191610205565b820191906000526020600020905b8154815290600101906020018083116101e857829003601f168201915b505050505081565b60606000805490508210610256576040517f08c379a000000000000000000000000000000000000000000000000000000000815260040161024d90610841565b60405180910390fd5b6000828154811061026a57610269610861565b5b90600052602060002001805461027f906107c4565b80601f01602080910402602001604051908101604052809291908181526020018280546102ab906107c4565b80156102f85780601f106102cd576101008083540402835291602001916102f8565b820191906000526020600020905b8154815290600101906020018083116102db57829003601f168201915b50505050509050919050565b60018160405161031491906108cc565b908152602001604051809103902060009054906101000a900460ff1615610370576040517f08c379a00000000000000000000000000000000000000000000000000000000081526004016103679061092f565b60405180910390fd5b6000819080600181540180825580915050600190039060005260206000200160009091909190915090816103a49190610afb565b50600180826040516103b691906108cc565b908152602001604051809103902060006101000a81548160ff0219169083151502179055507f200dbe4645ce7bdfae0ebd5b5df5ae4914e730abda072f44b0d2af6c144a107a814260405161040c929190610bcd565b60405180910390a150565b60008080549050905090565b6001818051602081018201805184825260208301602085012081835280955050505050506000915054906101000a900460ff1681565b600060018260405161046b91906108cc565b908152602001604051809103902060009054906101000a900460ff169050919050565b6000604051905090565b600080fd5b600080fd5b6000819050919050565b6104b5816104a2565b81146104c057600080fd5b50565b6000813590506104d2816104ac565b92915050565b6000602082840312156104ee576104ed610498565b5b60006104fc848285016104c3565b91505092915050565b600081519050919050565b600082825260208201905092915050565b60005b8381101561053f578082015181840152602081019050610524565b60008484015250505050565b6000601f19601f8301169050919050565b600061056782610505565b6105718185610510565b9350610581818560208601610521565b61058a8161054b565b840191505092915050565b600060208201905081810360008301526105af818461055c565b905092915050565b600080fd5b600080fd5b7f4e487b7100000000000000000000000000000000000000000000000000000000600052604160045260246000fd5b6105f98261054b565b810181811067ffffffffffffffff82111715610618576106176105c1565b5b80604052505050565b600061062b61048e565b905061063782826105f0565b919050565b600067ffffffffffffffff821115610657576106566105c1565b5b6106608261054b565b9050602081019050919050565b82818337600083830152505050565b600061068f61068a8461063c565b610621565b9050828152602081018484840111156106ab576106aa6105bc565b5b6106b684828561066d565b509392505050565b600082601f8301126106d3576106d26105b7565b5b81356106e384826020860161067c565b91505092915050565b60006020828403121561070257610701610498565b5b600082013567ffffffffffffffff8111156107205761071f61049d565b5b61072c848285016106be565b91505092915050565b61073e816104a2565b82525050565b60006020820190506107596000830184610735565b92915050565b60008115159050919050565b6107748161075f565b82525050565b600060208201905061078f600083018461076b565b92915050565b7f4e487b7100000000000000000000000000000000000000000000000000000000600052602260045260246000fd5b600060028204905060018216806107dc57607f821691505b6020821081036107ef576107ee610795565b5b50919050565b7f496e646578206f7574206f6620626f756e647300000000000000000000000000600082015250565b600061082b601383610510565b9150610836826107f5565b602082019050919050565b6000602082019050818103600083015261085a8161081e565b9050919050565b7f4e487b7100000000000000000000000000000000000000000000000000000000600052603260045260246000fd5b600081905092915050565b60006108a682610505565b6108b08185610890565b93506108c0818560208601610521565b80840191505092915050565b60006108d8828461089b565b915081905092915050565b7f4861736820616c72656164792073746f72656400000000000000000000000000600082015250565b6000610919601383610510565b9150610924826108e3565b602082019050919050565b600060208201905081810360008301526109488161090c565b9050919050565b60008190508160005260206000209050919050565b60006020601f8301049050919050565b600082821b905092915050565b6000600883026109b17fffffffffffffffffffffffffffffffffffffffffffffffffffffffffffffffff82610974565b6109bb8683610974565b95508019841693508086168417925050509392505050565b6000819050919050565b60006109f86109f36109ee846104a2565b6109d3565b6104a2565b9050919050565b6000819050919050565b610a12836109dd565b610a26610a1e826109ff565b848454610981565b825550505050565b600090565b610a3b610a2e565b610a46818484610a09565b505050565b5b81811015610a6a57610a5f600082610a33565b600181019050610a4c565b5050565b601f821115610aaf57610a808161094f565b610a8984610964565b81016020851015610a98578190505b610aac610aa485610964565b830182610a4b565b50505b505050565b600082821c905092915050565b6000610ad260001984600802610ab4565b1980831691505092915050565b6000610aeb8383610ac1565b9150826002028217905092915050565b610b0482610505565b67ffffffffffffffff811115610b1d57610b1c6105c1565b5b610b2782546107c4565b610b32828285610a6e565b600060209050601f831160018114610b655760008415610b53578287015190505b610b5d8582610adf565b865550610bc5565b601f198416610b738661094f565b60005b82811015610b9b57848901518255600182019150602085019450602081019050610b76565b86831015610bb85784890151610bb4601f891682610ac1565b8355505b6001600288020188555050505b505050505050565b60006040820190508181036000830152610be7818561055c565b9050610bf66020830184610735565b939250505056fea2646970667358221220eb3ecf0ce74df07b52f8e1c6bb65dda0cd3818eda2abf92f3dc2e79c8ee8c98864736f6c63430008140033",
  "immutableReferences": {},
  "source": "// SPDX-License-Identifier: MIT\npragma solidity ^0.8.20;\n\ncontract MongoDataStorage {\n    string[] public hashes;           // Array to store all hashes\n    mapping(string => bool) public isStored;  // To prevent duplicates (optional)\n\n    event HashStored(string hash, uint256 timestamp); // Event for logging\n\n    //  Store a new hash\n    function storeHash(string memory _hash) public {\n        require(!isStored[_hash], \"Hash already stored\"); // Optional: prevent duplicates\n\n        hashes.push(_hash);\n        isStored[_hash] = true;\n\n        emit HashStored(_hash, block.timestamp); // Emit event\n    }\n\n    //  Get total number of stored hashes\n    function getHashCount() public view returns (uint256) {\n        return hashes.length;\n    }\n\n    //  Get a hash by index\n    function getHash(uint256 index) public view returns (string memory) {\n        require(index < hashes.length, \"Index out of bounds\");\n        return hashes[index];\n    }\n\n    //  Check if a hash exists (frontend can call this)\n    function checkHashExists(string memory _hash) public view returns (bool) {\n        return isStored[_hash];\n    }\n}\n",
  "sourcePath": "C:\\CodeVerseClean\\contracts\\MongoDataStorage.sol",
  "compiler": {
    "name": "solc",
    "version": "0.8.20+commit.a1b79de6.Emscripten.clang"
  },
  "schemaVersion": "3.4.16",
  "updatedAt": "2025-07-10T00:09:49.454Z",
  "networkType": "ethereum",
  "devdoc": {
    "kind": "dev",
    "methods": {},
    "version": 1
  },
  "userdoc": {
    "kind": "user",
    "methods": {},
    "version": 1
  }
}