{
  "contractName": "TestDeploy",
  "abi": [
    {
      "inputs": [],
      "name": "value",
      "outputs": [
        {
          "internalType": "uint256",
          "name": "",
          "type": "uint256"
        }
      ],
      "stateMutability": "view",
      "type": "function"
    },
    {
      "inputs": [],
      "name": "getValue",
      "outputs": [
        {
          "internalType": "uint256",
          "name": "",
          "type": "uint256"
        }
      ],
      "stateMutability": "view",
      "type": "function"
    }
  ],
  "bytecode": "0x6080604052602a60005534801561001557600080fd5b5060e0806100246000396000f3fe6080604052348015600f57600080fd5b506004361060325760003560e01c8063209652551460375780633fa4f245146051575b600080fd5b603d606b565b604051604891906091565b60405180910390f35b60576074565b604051606291906091565b60405180910390f35b60008054905090565b60005481565b6000819050919050565b608b81607a565b82525050565b600060208201905060a460008301846084565b9291505056fea264697066735822122074d6a4f23cb535c9753d902cfc9b61c97b4675eaa954e6fa2cc64acffebcb8c764736f6c63430008140033",
  "immutableReferences": {},
  "source": "// SPDX-License-Identifier: MIT\npragma solidity ^0.8.0;\n\ncontract TestDeploy {\n    uint public value = 42;\n\n    function getValue() public view returns (uint) {\n        return value;\n    }\n}\n",
  "sourcePath": "C:\\CodeVerseClean\\contracts\\TestDeploy.sol",
  "compiler": {
    "name": "solc",
    "version": "0.8.20+commit.a1b79de6.Emscripten.clang"
  },
  "schemaVersion": "3.4.16",
  "updatedAt": "2025-07-10T00:09:47.905Z",
  "devdoc": {
    "kind": "dev",
    "methods": {},
    "version": 1
  },
  "userdoc": {
    "kind": "user",
    "methods": {},
    "version": 1
  }
}